{
  "_format": "hh-sol-artifact-1",
  "contractName": "Exchange",
  "sourceName": "contracts/Exchange.sol",
  "abi": [
    {
      "inputs": [
        {
          "internalType": "address",
          "name": "_feeAccount",
          "type": "address"
        },
        {
          "internalType": "uint256",
          "name": "_feePercent",
          "type": "uint256"
        }
      ],
      "stateMutability": "nonpayable",
      "type": "constructor"
    },
    {
      "anonymous": false,
      "inputs": [
        {
          "indexed": false,
          "internalType": "address",
          "name": "token",
          "type": "address"
        },
        {
          "indexed": false,
          "internalType": "address",
          "name": "user",
          "type": "address"
        },
        {
          "indexed": false,
          "internalType": "uint256",
          "name": "amount",
          "type": "uint256"
        },
        {
          "indexed": false,
          "internalType": "uint256",
          "name": "balance",
          "type": "uint256"
        }
      ],
      "name": "Deposit",
      "type": "event"
    },
    {
      "anonymous": false,
      "inputs": [
        {
          "indexed": false,
          "internalType": "address",
          "name": "token",
          "type": "address"
        },
        {
          "indexed": false,
          "internalType": "address",
          "name": "user",
          "type": "address"
        },
        {
          "indexed": false,
          "internalType": "uint256",
          "name": "amount",
          "type": "uint256"
        },
        {
          "indexed": false,
          "internalType": "uint256",
          "name": "balance",
          "type": "uint256"
        }
      ],
      "name": "Withdrawl",
      "type": "event"
    },
    {
      "inputs": [
        {
          "internalType": "address",
          "name": "_token",
          "type": "address"
        },
        {
          "internalType": "address",
          "name": "_user",
          "type": "address"
        }
      ],
      "name": "balanceOf",
      "outputs": [
        {
          "internalType": "uint256",
          "name": "",
          "type": "uint256"
        }
      ],
      "stateMutability": "view",
      "type": "function"
    },
    {
      "inputs": [
        {
          "internalType": "address",
          "name": "_token",
          "type": "address"
        },
        {
          "internalType": "uint256",
          "name": "_amount",
          "type": "uint256"
        }
      ],
      "name": "depositToken",
      "outputs": [],
      "stateMutability": "nonpayable",
      "type": "function"
    },
    {
      "inputs": [],
      "name": "feeAccount",
      "outputs": [
        {
          "internalType": "address",
          "name": "",
          "type": "address"
        }
      ],
      "stateMutability": "view",
      "type": "function"
    },
    {
      "inputs": [],
      "name": "feePercent",
      "outputs": [
        {
          "internalType": "uint256",
          "name": "",
          "type": "uint256"
        }
      ],
      "stateMutability": "view",
      "type": "function"
    },
    {
      "inputs": [
        {
          "internalType": "address",
          "name": "",
          "type": "address"
        },
        {
          "internalType": "address",
          "name": "",
          "type": "address"
        }
      ],
      "name": "tokens",
      "outputs": [
        {
          "internalType": "uint256",
          "name": "",
          "type": "uint256"
        }
      ],
      "stateMutability": "view",
      "type": "function"
    },
    {
      "inputs": [
        {
          "internalType": "address",
          "name": "_token",
          "type": "address"
        },
        {
          "internalType": "uint256",
          "name": "_amount",
          "type": "uint256"
        }
      ],
      "name": "withdrawToken",
      "outputs": [],
      "stateMutability": "nonpayable",
      "type": "function"
    }
  ],
  "bytecode": "0x608060405234801561001057600080fd5b5060405162000bec38038062000bec8339818101604052810190610034919061011b565b816000806101000a81548173ffffffffffffffffffffffffffffffffffffffff021916908373ffffffffffffffffffffffffffffffffffffffff16021790555080600181905550505061015b565b600080fd5b600073ffffffffffffffffffffffffffffffffffffffff82169050919050565b60006100b282610087565b9050919050565b6100c2816100a7565b81146100cd57600080fd5b50565b6000815190506100df816100b9565b92915050565b6000819050919050565b6100f8816100e5565b811461010357600080fd5b50565b600081519050610115816100ef565b92915050565b6000806040838503121561013257610131610082565b5b6000610140858286016100d0565b925050602061015185828601610106565b9150509250929050565b610a81806200016b6000396000f3fe608060405234801561001057600080fd5b50600436106100625760003560e01c8063338b5dea14610067578063508493bc1461008357806365e17c9d146100b35780637fd6f15c146100d15780639e281a98146100ef578063f7888aec1461010b575b600080fd5b610081600480360381019061007c9190610737565b61013b565b005b61009d60048036038101906100989190610777565b610323565b6040516100aa91906107c6565b60405180910390f35b6100bb610348565b6040516100c891906107f0565b60405180910390f35b6100d961036c565b6040516100e691906107c6565b60405180910390f35b61010960048036038101906101049190610737565b610372565b005b61012560048036038101906101209190610777565b610617565b60405161013291906107c6565b60405180910390f35b8173ffffffffffffffffffffffffffffffffffffffff166323b872dd3330846040518463ffffffff1660e01b81526004016101789392919061080b565b602060405180830381600087803b15801561019257600080fd5b505af11580156101a6573d6000803e3d6000fd5b505050506040513d601f19601f820116820180604052508101906101ca919061087a565b6101d357600080fd5b80600260008473ffffffffffffffffffffffffffffffffffffffff1673ffffffffffffffffffffffffffffffffffffffff16815260200190815260200160002060003373ffffffffffffffffffffffffffffffffffffffff1673ffffffffffffffffffffffffffffffffffffffff168152602001908152602001600020600082825461025f91906108d6565b925050819055507fdcbc1c05240f31ff3ad067ef1ee35ce4997762752e3a095284754544f4c709d7823383600260008773ffffffffffffffffffffffffffffffffffffffff1673ffffffffffffffffffffffffffffffffffffffff16815260200190815260200160002060003373ffffffffffffffffffffffffffffffffffffffff1673ffffffffffffffffffffffffffffffffffffffff16815260200190815260200160002054604051610317949392919061092c565b60405180910390a15050565b6002602052816000526040600020602052806000526040600020600091509150505481565b60008054906101000a900473ffffffffffffffffffffffffffffffffffffffff1681565b60015481565b80600260008473ffffffffffffffffffffffffffffffffffffffff1673ffffffffffffffffffffffffffffffffffffffff16815260200190815260200160002060003373ffffffffffffffffffffffffffffffffffffffff1673ffffffffffffffffffffffffffffffffffffffff168152602001908152602001600020541015610431576040517f08c379a0000000000000000000000000000000000000000000000000000000008152600401610428906109ce565b60405180910390fd5b8173ffffffffffffffffffffffffffffffffffffffff1663a9059cbb33836040518363ffffffff1660e01b815260040161046c9291906109ee565b602060405180830381600087803b15801561048657600080fd5b505af115801561049a573d6000803e3d6000fd5b505050506040513d601f19601f820116820180604052508101906104be919061087a565b6104c757600080fd5b80600260008473ffffffffffffffffffffffffffffffffffffffff1673ffffffffffffffffffffffffffffffffffffffff16815260200190815260200160002060003373ffffffffffffffffffffffffffffffffffffffff1673ffffffffffffffffffffffffffffffffffffffff16815260200190815260200160002060008282546105539190610a17565b925050819055507f992d325ef2df4b8152174e73b190d6bbb5bba3dd37d310d386c6fc3efa5dc766823383600260008773ffffffffffffffffffffffffffffffffffffffff1673ffffffffffffffffffffffffffffffffffffffff16815260200190815260200160002060003373ffffffffffffffffffffffffffffffffffffffff1673ffffffffffffffffffffffffffffffffffffffff1681526020019081526020016000205460405161060b949392919061092c565b60405180910390a15050565b6000600260008473ffffffffffffffffffffffffffffffffffffffff1673ffffffffffffffffffffffffffffffffffffffff16815260200190815260200160002060008373ffffffffffffffffffffffffffffffffffffffff1673ffffffffffffffffffffffffffffffffffffffff16815260200190815260200160002054905092915050565b600080fd5b600073ffffffffffffffffffffffffffffffffffffffff82169050919050565b60006106ce826106a3565b9050919050565b6106de816106c3565b81146106e957600080fd5b50565b6000813590506106fb816106d5565b92915050565b6000819050919050565b61071481610701565b811461071f57600080fd5b50565b6000813590506107318161070b565b92915050565b6000806040838503121561074e5761074d61069e565b5b600061075c858286016106ec565b925050602061076d85828601610722565b9150509250929050565b6000806040838503121561078e5761078d61069e565b5b600061079c858286016106ec565b92505060206107ad858286016106ec565b9150509250929050565b6107c081610701565b82525050565b60006020820190506107db60008301846107b7565b92915050565b6107ea816106c3565b82525050565b600060208201905061080560008301846107e1565b92915050565b600060608201905061082060008301866107e1565b61082d60208301856107e1565b61083a60408301846107b7565b949350505050565b60008115159050919050565b61085781610842565b811461086257600080fd5b50565b6000815190506108748161084e565b92915050565b6000602082840312156108905761088f61069e565b5b600061089e84828501610865565b91505092915050565b7f4e487b7100000000000000000000000000000000000000000000000000000000600052601160045260246000fd5b60006108e182610701565b91506108ec83610701565b9250827fffffffffffffffffffffffffffffffffffffffffffffffffffffffffffffffff03821115610921576109206108a7565b5b828201905092915050565b600060808201905061094160008301876107e1565b61094e60208301866107e1565b61095b60408301856107b7565b61096860608301846107b7565b95945050505050565b600082825260208201905092915050565b7f496e73756666696369656e742062616c616e6365000000000000000000000000600082015250565b60006109b8601483610971565b91506109c382610982565b602082019050919050565b600060208201905081810360008301526109e7816109ab565b9050919050565b6000604082019050610a0360008301856107e1565b610a1060208301846107b7565b9392505050565b6000610a2282610701565b9150610a2d83610701565b925082821015610a4057610a3f6108a7565b5b82820390509291505056fea264697066735822122040a9bef5b5d81e51478253cd771dbe2f490ba06b3c588f0c52849e93dc906a3164736f6c63430008090033",
  "linkReferences": {},
  "deployedLinkReferences": {}
}