{
  "_format": "hh-sol-artifact-1",
  "contractName": "Token",
  "sourceName": "contracts/Token.sol",
  "abi": [
    {
      "inputs": [
        {
          "internalType": "string",
          "name": "_name",
          "type": "string"
        },
        {
          "internalType": "string",
          "name": "_symbol",
          "type": "string"
        },
        {
          "internalType": "uint256",
          "name": "_totalSupply",
          "type": "uint256"
        }
      ],
      "stateMutability": "nonpayable",
      "type": "constructor"
    },
    {
      "inputs": [
        {
          "internalType": "address",
          "name": "",
          "type": "address"
        }
      ],
      "name": "balanceOf",
      "outputs": [
        {
          "internalType": "uint256",
          "name": "",
          "type": "uint256"
        }
      ],
      "stateMutability": "view",
      "type": "function"
    },
    {
      "inputs": [],
      "name": "decimals",
      "outputs": [
        {
          "internalType": "uint256",
          "name": "",
          "type": "uint256"
        }
      ],
      "stateMutability": "view",
      "type": "function"
    },
    {
      "inputs": [],
      "name": "name",
      "outputs": [
        {
          "internalType": "string",
          "name": "",
          "type": "string"
        }
      ],
      "stateMutability": "view",
      "type": "function"
    },
    {
      "inputs": [],
      "name": "symbol",
      "outputs": [
        {
          "internalType": "string",
          "name": "",
          "type": "string"
        }
      ],
      "stateMutability": "view",
      "type": "function"
    },
    {
      "inputs": [],
      "name": "totalSupply",
      "outputs": [
        {
          "internalType": "uint256",
          "name": "",
          "type": "uint256"
        }
      ],
      "stateMutability": "view",
      "type": "function"
    }
  ],
  "bytecode": "0x608060405260126002553480156200001657600080fd5b5060405162000b0738038062000b0783398181016040528101906200003c919062000369565b826000908051906020019062000054929190620000e1565b5081600190805190602001906200006d929190620000e1565b50600254600a6200007f919062000586565b816200008c9190620005d7565b600381905550600354600460003373ffffffffffffffffffffffffffffffffffffffff1673ffffffffffffffffffffffffffffffffffffffff168152602001908152602001600020819055505050506200069d565b828054620000ef9062000667565b90600052602060002090601f0160209004810192826200011357600085556200015f565b82601f106200012e57805160ff19168380011785556200015f565b828001600101855582156200015f579182015b828111156200015e57825182559160200191906001019062000141565b5b5090506200016e919062000172565b5090565b5b808211156200018d57600081600090555060010162000173565b5090565b6000604051905090565b600080fd5b600080fd5b600080fd5b600080fd5b6000601f19601f8301169050919050565b7f4e487b7100000000000000000000000000000000000000000000000000000000600052604160045260246000fd5b620001fa82620001af565b810181811067ffffffffffffffff821117156200021c576200021b620001c0565b5b80604052505050565b60006200023162000191565b90506200023f8282620001ef565b919050565b600067ffffffffffffffff821115620002625762000261620001c0565b5b6200026d82620001af565b9050602081019050919050565b60005b838110156200029a5780820151818401526020810190506200027d565b83811115620002aa576000848401525b50505050565b6000620002c7620002c18462000244565b62000225565b905082815260208101848484011115620002e657620002e5620001aa565b5b620002f38482856200027a565b509392505050565b600082601f830112620003135762000312620001a5565b5b815162000325848260208601620002b0565b91505092915050565b6000819050919050565b62000343816200032e565b81146200034f57600080fd5b50565b600081519050620003638162000338565b92915050565b6000806000606084860312156200038557620003846200019b565b5b600084015167ffffffffffffffff811115620003a657620003a5620001a0565b5b620003b486828701620002fb565b935050602084015167ffffffffffffffff811115620003d857620003d7620001a0565b5b620003e686828701620002fb565b9250506040620003f98682870162000352565b9150509250925092565b7f4e487b7100000000000000000000000000000000000000000000000000000000600052601160045260246000fd5b60008160011c9050919050565b6000808291508390505b6001851115620004915780860481111562000469576200046862000403565b5b6001851615620004795780820291505b8081029050620004898562000432565b945062000449565b94509492505050565b600082620004ac57600190506200057f565b81620004bc57600090506200057f565b8160018114620004d55760028114620004e05762000516565b60019150506200057f565b60ff841115620004f557620004f462000403565b5b8360020a9150848211156200050f576200050e62000403565b5b506200057f565b5060208310610133831016604e8410600b8410161715620005505782820a9050838111156200054a576200054962000403565b5b6200057f565b6200055f84848460016200043f565b9250905081840481111562000579576200057862000403565b5b81810290505b9392505050565b600062000593826200032e565b9150620005a0836200032e565b9250620005cf7fffffffffffffffffffffffffffffffffffffffffffffffffffffffffffffffff84846200049a565b905092915050565b6000620005e4826200032e565b9150620005f1836200032e565b9250817fffffffffffffffffffffffffffffffffffffffffffffffffffffffffffffffff04831182151516156200062d576200062c62000403565b5b828202905092915050565b7f4e487b7100000000000000000000000000000000000000000000000000000000600052602260045260246000fd5b600060028204905060018216806200068057607f821691505b6020821081141562000697576200069662000638565b5b50919050565b61045a80620006ad6000396000f3fe608060405234801561001057600080fd5b50600436106100575760003560e01c806306fdde031461005c57806318160ddd1461007a578063313ce5671461009857806370a08231146100b657806395d89b41146100e6575b600080fd5b610064610104565b60405161007191906102dd565b60405180910390f35b610082610192565b60405161008f9190610318565b60405180910390f35b6100a0610198565b6040516100ad9190610318565b60405180910390f35b6100d060048036038101906100cb9190610396565b61019e565b6040516100dd9190610318565b60405180910390f35b6100ee6101b6565b6040516100fb91906102dd565b60405180910390f35b60008054610111906103f2565b80601f016020809104026020016040519081016040528092919081815260200182805461013d906103f2565b801561018a5780601f1061015f5761010080835404028352916020019161018a565b820191906000526020600020905b81548152906001019060200180831161016d57829003601f168201915b505050505081565b60035481565b60025481565b60046020528060005260406000206000915090505481565b600180546101c3906103f2565b80601f01602080910402602001604051908101604052809291908181526020018280546101ef906103f2565b801561023c5780601f106102115761010080835404028352916020019161023c565b820191906000526020600020905b81548152906001019060200180831161021f57829003601f168201915b505050505081565b600081519050919050565b600082825260208201905092915050565b60005b8381101561027e578082015181840152602081019050610263565b8381111561028d576000848401525b50505050565b6000601f19601f8301169050919050565b60006102af82610244565b6102b9818561024f565b93506102c9818560208601610260565b6102d281610293565b840191505092915050565b600060208201905081810360008301526102f781846102a4565b905092915050565b6000819050919050565b610312816102ff565b82525050565b600060208201905061032d6000830184610309565b92915050565b600080fd5b600073ffffffffffffffffffffffffffffffffffffffff82169050919050565b600061036382610338565b9050919050565b61037381610358565b811461037e57600080fd5b50565b6000813590506103908161036a565b92915050565b6000602082840312156103ac576103ab610333565b5b60006103ba84828501610381565b91505092915050565b7f4e487b7100000000000000000000000000000000000000000000000000000000600052602260045260246000fd5b6000600282049050600182168061040a57607f821691505b6020821081141561041e5761041d6103c3565b5b5091905056fea2646970667358221220a0b92b630bba21af824987dcf8bed91ecff892d9d0d95eb5ea3e701ab6ce4ecb64736f6c63430008090033",
  "linkReferences": {},
  "deployedLinkReferences": {}
}